{
  "_format": "hh-sol-artifact-1",
  "contractName": "Presale",
  "sourceName": "contracts/Presale.sol",
  "abi": [
    {
      "inputs": [],
      "stateMutability": "nonpayable",
      "type": "constructor"
    },
    {
      "anonymous": false,
      "inputs": [
        {
          "indexed": true,
          "internalType": "address",
          "name": "previousOwner",
          "type": "address"
        },
        {
          "indexed": true,
          "internalType": "address",
          "name": "newOwner",
          "type": "address"
        }
      ],
      "name": "OwnershipTransferred",
      "type": "event"
    },
    {
      "inputs": [],
      "name": "blstToken",
      "outputs": [
        {
          "internalType": "address",
          "name": "",
          "type": "address"
        }
      ],
      "stateMutability": "view",
      "type": "function"
    },
    {
      "inputs": [
        {
          "internalType": "address",
          "name": "",
          "type": "address"
        }
      ],
      "name": "boughtTokens",
      "outputs": [
        {
          "internalType": "bool",
          "name": "",
          "type": "bool"
        }
      ],
      "stateMutability": "view",
      "type": "function"
    },
    {
      "inputs": [],
      "name": "busd",
      "outputs": [
        {
          "internalType": "address",
          "name": "",
          "type": "address"
        }
      ],
      "stateMutability": "view",
      "type": "function"
    },
    {
      "inputs": [],
      "name": "claim",
      "outputs": [
        {
          "internalType": "bool",
          "name": "",
          "type": "bool"
        }
      ],
      "stateMutability": "nonpayable",
      "type": "function"
    },
    {
      "inputs": [
        {
          "internalType": "address",
          "name": "",
          "type": "address"
        }
      ],
      "name": "claimed",
      "outputs": [
        {
          "internalType": "bool",
          "name": "",
          "type": "bool"
        }
      ],
      "stateMutability": "view",
      "type": "function"
    },
    {
      "inputs": [
        {
          "internalType": "address[]",
          "name": "addresses",
          "type": "address[]"
        }
      ],
      "name": "extraUnwhitelistUsers",
      "outputs": [],
      "stateMutability": "nonpayable",
      "type": "function"
    },
    {
      "inputs": [
        {
          "internalType": "address[]",
          "name": "addresses",
          "type": "address[]"
        }
      ],
      "name": "extraWhitelistUsers",
      "outputs": [],
      "stateMutability": "nonpayable",
      "type": "function"
    },
    {
      "inputs": [
        {
          "internalType": "address",
          "name": "",
          "type": "address"
        }
      ],
      "name": "extraWhitelisted",
      "outputs": [
        {
          "internalType": "bool",
          "name": "",
          "type": "bool"
        }
      ],
      "stateMutability": "view",
      "type": "function"
    },
    {
      "inputs": [],
      "name": "finishIdo",
      "outputs": [
        {
          "internalType": "bool",
          "name": "",
          "type": "bool"
        }
      ],
      "stateMutability": "view",
      "type": "function"
    },
    {
      "inputs": [
        {
          "internalType": "address",
          "name": "_user",
          "type": "address"
        }
      ],
      "name": "getClaimable",
      "outputs": [
        {
          "internalType": "bool",
          "name": "",
          "type": "bool"
        }
      ],
      "stateMutability": "view",
      "type": "function"
    },
    {
      "inputs": [],
      "name": "getTimeForClaim",
      "outputs": [
        {
          "internalType": "uint256",
          "name": "",
          "type": "uint256"
        }
      ],
      "stateMutability": "view",
      "type": "function"
    },
    {
      "inputs": [
        {
          "internalType": "address",
          "name": "_blstToken",
          "type": "address"
        },
        {
          "internalType": "address",
          "name": "_busd",
          "type": "address"
        },
        {
          "internalType": "uint256",
          "name": "_rate",
          "type": "uint256"
        },
        {
          "internalType": "uint256",
          "name": "_totalAmount",
          "type": "uint256"
        },
        {
          "internalType": "uint256",
          "name": "_minPurchaseAmount",
          "type": "uint256"
        },
        {
          "internalType": "uint256",
          "name": "_maxPurchaseAmount",
          "type": "uint256"
        },
        {
          "internalType": "uint256",
          "name": "_maxExtraPurchaseAmount",
          "type": "uint256"
        }
      ],
      "name": "initialize",
      "outputs": [
        {
          "internalType": "bool",
          "name": "",
          "type": "bool"
        }
      ],
      "stateMutability": "nonpayable",
      "type": "function"
    },
    {
      "inputs": [
        {
          "internalType": "address",
          "name": "_user",
          "type": "address"
        }
      ],
      "name": "isOpenForUser",
      "outputs": [
        {
          "internalType": "bool",
          "name": "",
          "type": "bool"
        }
      ],
      "stateMutability": "view",
      "type": "function"
    },
    {
      "inputs": [],
      "name": "maxExtraPurchaseAmount",
      "outputs": [
        {
          "internalType": "uint256",
          "name": "",
          "type": "uint256"
        }
      ],
      "stateMutability": "view",
      "type": "function"
    },
    {
      "inputs": [],
      "name": "maxPurchaseAmount",
      "outputs": [
        {
          "internalType": "uint256",
          "name": "",
          "type": "uint256"
        }
      ],
      "stateMutability": "view",
      "type": "function"
    },
    {
      "inputs": [],
      "name": "minPurchaseAmount",
      "outputs": [
        {
          "internalType": "uint256",
          "name": "",
          "type": "uint256"
        }
      ],
      "stateMutability": "view",
      "type": "function"
    },
    {
      "inputs": [],
      "name": "openClaim",
      "outputs": [
        {
          "internalType": "bool",
          "name": "",
          "type": "bool"
        }
      ],
      "stateMutability": "view",
      "type": "function"
    },
    {
      "inputs": [],
      "name": "openIdo",
      "outputs": [
        {
          "internalType": "bool",
          "name": "",
          "type": "bool"
        }
      ],
      "stateMutability": "view",
      "type": "function"
    },
    {
      "inputs": [],
      "name": "openPublic",
      "outputs": [
        {
          "internalType": "bool",
          "name": "",
          "type": "bool"
        }
      ],
      "stateMutability": "view",
      "type": "function"
    },
    {
      "inputs": [],
      "name": "owner",
      "outputs": [
        {
          "internalType": "address",
          "name": "",
          "type": "address"
        }
      ],
      "stateMutability": "view",
      "type": "function"
    },
    {
      "inputs": [],
      "name": "privateSalePeriod",
      "outputs": [
        {
          "internalType": "uint256",
          "name": "",
          "type": "uint256"
        }
      ],
      "stateMutability": "view",
      "type": "function"
    },
    {
      "inputs": [
        {
          "internalType": "uint256",
          "name": "_purchaseAmount",
          "type": "uint256"
        }
      ],
      "name": "purchase",
      "outputs": [
        {
          "internalType": "bool",
          "name": "",
          "type": "bool"
        }
      ],
      "stateMutability": "nonpayable",
      "type": "function"
    },
    {
      "inputs": [
        {
          "internalType": "address",
          "name": "",
          "type": "address"
        }
      ],
      "name": "purchasedAmount",
      "outputs": [
        {
          "internalType": "uint256",
          "name": "",
          "type": "uint256"
        }
      ],
      "stateMutability": "view",
      "type": "function"
    },
    {
      "inputs": [],
      "name": "rate",
      "outputs": [
        {
          "internalType": "uint256",
          "name": "",
          "type": "uint256"
        }
      ],
      "stateMutability": "view",
      "type": "function"
    },
    {
      "inputs": [],
      "name": "renounceOwnership",
      "outputs": [],
      "stateMutability": "nonpayable",
      "type": "function"
    },
    {
      "inputs": [],
      "name": "saleStartTime",
      "outputs": [
        {
          "internalType": "uint256",
          "name": "",
          "type": "uint256"
        }
      ],
      "stateMutability": "view",
      "type": "function"
    },
    {
      "inputs": [],
      "name": "sellAmount",
      "outputs": [
        {
          "internalType": "uint256",
          "name": "",
          "type": "uint256"
        }
      ],
      "stateMutability": "view",
      "type": "function"
    },
    {
      "inputs": [
        {
          "internalType": "bool",
          "name": "_open",
          "type": "bool"
        }
      ],
      "name": "setFinishPresale",
      "outputs": [],
      "stateMutability": "nonpayable",
      "type": "function"
    },
    {
      "inputs": [
        {
          "internalType": "bool",
          "name": "_open",
          "type": "bool"
        }
      ],
      "name": "setOpenClaim",
      "outputs": [],
      "stateMutability": "nonpayable",
      "type": "function"
    },
    {
      "inputs": [
        {
          "internalType": "bool",
          "name": "_open",
          "type": "bool"
        }
      ],
      "name": "setOpenPresale",
      "outputs": [],
      "stateMutability": "nonpayable",
      "type": "function"
    },
    {
      "inputs": [
        {
          "internalType": "bool",
          "name": "_open",
          "type": "bool"
        }
      ],
      "name": "setOpenPublic",
      "outputs": [],
      "stateMutability": "nonpayable",
      "type": "function"
    },
    {
      "inputs": [],
      "name": "totalAmount",
      "outputs": [
        {
          "internalType": "uint256",
          "name": "",
          "type": "uint256"
        }
      ],
      "stateMutability": "view",
      "type": "function"
    },
    {
      "inputs": [],
      "name": "totalContributors",
      "outputs": [
        {
          "internalType": "uint256",
          "name": "_value",
          "type": "uint256"
        }
      ],
      "stateMutability": "view",
      "type": "function"
    },
    {
      "inputs": [
        {
          "internalType": "address",
          "name": "newOwner_",
          "type": "address"
        }
      ],
      "name": "transferOwnership",
      "outputs": [],
      "stateMutability": "nonpayable",
      "type": "function"
    },
    {
      "inputs": [
        {
          "internalType": "address[]",
          "name": "addresses",
          "type": "address[]"
        }
      ],
      "name": "unwhitelistUsers",
      "outputs": [],
      "stateMutability": "nonpayable",
      "type": "function"
    },
    {
      "inputs": [
        {
          "internalType": "address[]",
          "name": "addresses",
          "type": "address[]"
        }
      ],
      "name": "whitelistUsers",
      "outputs": [],
      "stateMutability": "nonpayable",
      "type": "function"
    },
    {
      "inputs": [
        {
          "internalType": "address",
          "name": "",
          "type": "address"
        }
      ],
      "name": "whitelisted",
      "outputs": [
        {
          "internalType": "bool",
          "name": "",
          "type": "bool"
        }
      ],
      "stateMutability": "view",
      "type": "function"
    },
    {
      "inputs": [],
      "name": "withdraw",
      "outputs": [],
      "stateMutability": "nonpayable",
      "type": "function"
    }
  ],
  "bytecode": "0x60806040526000600a60006101000a81548160ff0219169083151502179055506000600a60016101000a81548160ff0219169083151502179055506000600a60026101000a81548160ff0219169083151502179055506000600a60036101000a81548160ff02191690831515021790555062016da0600c5534801561008357600080fd5b50336000806101000a81548173ffffffffffffffffffffffffffffffffffffffff021916908373ffffffffffffffffffffffffffffffffffffffff16021790555060008054906101000a900473ffffffffffffffffffffffffffffffffffffffff1673ffffffffffffffffffffffffffffffffffffffff16600073ffffffffffffffffffffffffffffffffffffffff167f8be0079c531659141344cd1fd0a4f28419497f9722a3daafe3b4186f6b6457e060405160405180910390a3613ca18061014e6000396000f3fe608060405234801561001057600080fd5b50600436106102325760003560e01c80639ae7dcae11610130578063d936547e116100b8578063efef39a11161007c578063efef39a11461066f578063f222af331461069f578063f251fc8c146106bb578063f2fde38b146106d9578063f952fcad146106f557610232565b8063d936547e146105b7578063df74afca146105e7578063edbf4ac214610605578063edec5f2714610635578063edec8bdd1461065157610232565b8063b6d4e132116100ff578063b6d4e13214610513578063b91067de14610531578063c884ef831461054d578063cbf9a8a81461057d578063cc31f8851461059957610232565b80639ae7dcae1461048b578063a06afe71146104a9578063a583024b146104c5578063b47dbf22146104f557610232565b80633fc80006116101be57806378f6508d1161018257806378f6508d146103c157806383bad1af146103f15780638bd0dba5146104215780638da5cb5b1461043d57806394dd0a671461045b57610232565b80633fc800061461032f57806344c4dcc11461034d5780634e71d92d1461037d5780634ef6fd361461039b578063715018a6146103b757610232565b8063293cdbf111610205578063293cdbf1146102ad5780632c4e722e146102cb5780633ca5b234146102e95780633ccfd60b146103075780633f407b841461031157610232565b80631a39d8ef146102375780631cbaee2d146102555780631cfa43eb146102735780631fa57e5814610291575b600080fd5b61023f610713565b60405161024c9190613526565b60405180910390f35b61025d610719565b60405161026a9190613526565b60405180910390f35b61027b61071f565b60405161028891906132c9565b60405180910390f35b6102ab60048036038101906102a69190612e50565b610732565b005b6102b56108c9565b6040516102c291906132c9565b60405180910390f35b6102d36108dc565b6040516102e09190613526565b60405180910390f35b6102f16108e2565b6040516102fe919061324e565b60405180910390f35b61030f610908565b005b610319610bf9565b6040516103269190613526565b60405180910390f35b610337610bff565b60405161034491906132c9565b60405180910390f35b61036760048036038101906103629190612d81565b610c12565b6040516103749190613526565b60405180910390f35b610385610c2a565b60405161039291906132c9565b60405180910390f35b6103b560048036038101906103b09190612e50565b610e8a565b005b6103bf611021565b005b6103db60048036038101906103d69190612d81565b61116d565b6040516103e891906132c9565b60405180910390f35b61040b60048036038101906104069190612d81565b61118d565b60405161041891906132c9565b60405180910390f35b61043b60048036038101906104369190612e99565b6111ad565b005b61044561126d565b604051610452919061324e565b60405180910390f35b61047560048036038101906104709190612d81565b611296565b60405161048291906132c9565b60405180910390f35b6104936114e1565b6040516104a09190613526565b60405180910390f35b6104c360048036038101906104be9190612e99565b6114e7565b005b6104df60048036038101906104da9190612d81565b611592565b6040516104ec91906132c9565b60405180910390f35b6104fd6116a2565b60405161050a9190613526565b60405180910390f35b61051b6116a8565b60405161052891906132c9565b60405180910390f35b61054b60048036038101906105469190612e50565b6116bb565b005b61056760048036038101906105629190612d81565b611852565b60405161057491906132c9565b60405180910390f35b61059760048036038101906105929190612e99565b611872565b005b6105a161191d565b6040516105ae919061324e565b60405180910390f35b6105d160048036038101906105cc9190612d81565b611943565b6040516105de91906132c9565b60405180910390f35b6105ef611963565b6040516105fc9190613526565b60405180910390f35b61061f600480360381019061061a9190612dae565b611969565b60405161062c91906132c9565b60405180910390f35b61064f600480360381019061064a9190612e50565b611aad565b005b610659611c44565b6040516106669190613526565b60405180910390f35b61068960048036038101906106849190612ef3565b611cba565b60405161069691906132c9565b60405180910390f35b6106b960048036038101906106b49190612e99565b612495565b005b6106c3612540565b6040516106d09190613526565b60405180910390f35b6106f360048036038101906106ee9190612d81565b61254c565b005b6106fd612707565b60405161070a9190613526565b60405180910390f35b60075481565b600b5481565b600a60009054906101000a900460ff1681565b3373ffffffffffffffffffffffffffffffffffffffff1660008054906101000a900473ffffffffffffffffffffffffffffffffffffffff1673ffffffffffffffffffffffffffffffffffffffff16146107c0576040517f08c379a00000000000000000000000000000000000000000000000000000000081526004016107b790613406565b60405180910390fd5b60005b81518110156108c55760011515601160008484815181106107e7576107e661382c565b5b602002602001015173ffffffffffffffffffffffffffffffffffffffff1673ffffffffffffffffffffffffffffffffffffffff16815260200190815260200160002060009054906101000a900460ff16151514156108b2576000601160008484815181106108585761085761382c565b5b602002602001015173ffffffffffffffffffffffffffffffffffffffff1673ffffffffffffffffffffffffffffffffffffffff16815260200190815260200160002060006101000a81548160ff0219169083151502179055505b80806108bd90613785565b9150506107c3565b5050565b600a60019054906101000a900460ff1681565b60095481565b600360009054906101000a900473ffffffffffffffffffffffffffffffffffffffff1681565b3373ffffffffffffffffffffffffffffffffffffffff1660008054906101000a900473ffffffffffffffffffffffffffffffffffffffff1673ffffffffffffffffffffffffffffffffffffffff1614610996576040517f08c379a000000000000000000000000000000000000000000000000000000000815260040161098d90613406565b60405180910390fd5b60006109f060646109e2670de0b6b3a76400006109d46009546109c660085460075461270d90919063ffffffff16565b61275790919063ffffffff16565b61275790919063ffffffff16565b6127d290919063ffffffff16565b90506008546007541015610aac57600260009054906101000a900473ffffffffffffffffffffffffffffffffffffffff1673ffffffffffffffffffffffffffffffffffffffff166370a08231306040518263ffffffff1660e01b8152600401610a59919061324e565b60206040518083038186803b158015610a7157600080fd5b505afa158015610a85573d6000803e3d6000fd5b505050506040513d601f19601f82011682018060405250810190610aa99190612f20565b90505b6000600360009054906101000a900473ffffffffffffffffffffffffffffffffffffffff1673ffffffffffffffffffffffffffffffffffffffff166370a08231306040518263ffffffff1660e01b8152600401610b09919061324e565b60206040518083038186803b158015610b2157600080fd5b505afa158015610b35573d6000803e3d6000fd5b505050506040513d601f19601f82011682018060405250810190610b599190612f20565b9050610ba83382600360009054906101000a900473ffffffffffffffffffffffffffffffffffffffff1673ffffffffffffffffffffffffffffffffffffffff1661281c9092919063ffffffff16565b610bf53383600260009054906101000a900473ffffffffffffffffffffffffffffffffffffffff1673ffffffffffffffffffffffffffffffffffffffff1661281c9092919063ffffffff16565b5050565b60085481565b600a60039054906101000a900460ff1681565b600d6020528060005260406000206000915090505481565b600060011515600a60019054906101000a900460ff16151514610c82576040517f08c379a0000000000000000000000000000000000000000000000000000000008152600401610c79906133c6565b60405180910390fd5b60001515600f60003373ffffffffffffffffffffffffffffffffffffffff1673ffffffffffffffffffffffffffffffffffffffff16815260200190815260200160002060009054906101000a900460ff16151514610d15576040517f08c379a0000000000000000000000000000000000000000000000000000000008152600401610d0c90613306565b60405180910390fd5b6000600d60003373ffffffffffffffffffffffffffffffffffffffff1673ffffffffffffffffffffffffffffffffffffffff16815260200190815260200160002054905060008111610d9c576040517f08c379a0000000000000000000000000000000000000000000000000000000008152600401610d93906133a6565b60405180910390fd5b610e2a33610de26064610dd4670de0b6b3a7640000610dc66009548861275790919063ffffffff16565b61275790919063ffffffff16565b6127d290919063ffffffff16565b600260009054906101000a900473ffffffffffffffffffffffffffffffffffffffff1673ffffffffffffffffffffffffffffffffffffffff1661281c9092919063ffffffff16565b6001600f60003373ffffffffffffffffffffffffffffffffffffffff1673ffffffffffffffffffffffffffffffffffffffff16815260200190815260200160002060006101000a81548160ff021916908315150217905550600191505090565b3373ffffffffffffffffffffffffffffffffffffffff1660008054906101000a900473ffffffffffffffffffffffffffffffffffffffff1673ffffffffffffffffffffffffffffffffffffffff1614610f18576040517f08c379a0000000000000000000000000000000000000000000000000000000008152600401610f0f90613406565b60405180910390fd5b60005b815181101561101d576000151560116000848481518110610f3f57610f3e61382c565b5b602002602001015173ffffffffffffffffffffffffffffffffffffffff1673ffffffffffffffffffffffffffffffffffffffff16815260200190815260200160002060009054906101000a900460ff161515141561100a57600160116000848481518110610fb057610faf61382c565b5b602002602001015173ffffffffffffffffffffffffffffffffffffffff1673ffffffffffffffffffffffffffffffffffffffff16815260200190815260200160002060006101000a81548160ff0219169083151502179055505b808061101590613785565b915050610f1b565b5050565b3373ffffffffffffffffffffffffffffffffffffffff1660008054906101000a900473ffffffffffffffffffffffffffffffffffffffff1673ffffffffffffffffffffffffffffffffffffffff16146110af576040517f08c379a00000000000000000000000000000000000000000000000000000000081526004016110a690613406565b60405180910390fd5b600073ffffffffffffffffffffffffffffffffffffffff1660008054906101000a900473ffffffffffffffffffffffffffffffffffffffff1673ffffffffffffffffffffffffffffffffffffffff167f8be0079c531659141344cd1fd0a4f28419497f9722a3daafe3b4186f6b6457e060405160405180910390a360008060006101000a81548173ffffffffffffffffffffffffffffffffffffffff021916908373ffffffffffffffffffffffffffffffffffffffff160217905550565b60116020528060005260406000206000915054906101000a900460ff1681565b600e6020528060005260406000206000915054906101000a900460ff1681565b3373ffffffffffffffffffffffffffffffffffffffff1660008054906101000a900473ffffffffffffffffffffffffffffffffffffffff1673ffffffffffffffffffffffffffffffffffffffff161461123b576040517f08c379a000000000000000000000000000000000000000000000000000000000815260040161123290613406565b60405180910390fd5b80600a60006101000a81548160ff02191690831515021790555060011515811515141561126a5742600b819055505b50565b60008060009054906101000a900473ffffffffffffffffffffffffffffffffffffffff16905090565b6000600a60009054906101000a900460ff161580611304575060001515601060008473ffffffffffffffffffffffffffffffffffffffff1673ffffffffffffffffffffffffffffffffffffffff16815260200190815260200160002060009054906101000a900460ff161515145b8061135f575060001515601160008473ffffffffffffffffffffffffffffffffffffffff1673ffffffffffffffffffffffffffffffffffffffff16815260200190815260200160002060009054906101000a900460ff161515145b806113ff5750600e60008373ffffffffffffffffffffffffffffffffffffffff1673ffffffffffffffffffffffffffffffffffffffff16815260200190815260200160002060009054906101000a900460ff1680156113fe5750600554600d60008473ffffffffffffffffffffffffffffffffffffffff1673ffffffffffffffffffffffffffffffffffffffff16815260200190815260200160002054145b5b8061149f5750600e60008373ffffffffffffffffffffffffffffffffffffffff1673ffffffffffffffffffffffffffffffffffffffff16815260200190815260200160002060009054906101000a900460ff16801561149e5750600654600d60008473ffffffffffffffffffffffffffffffffffffffff1673ffffffffffffffffffffffffffffffffffffffff16815260200190815260200160002054145b5b156114ad57600090506114dc565b60006114c6600c54600b546128a290919063ffffffff16565b905080421080156114d85750600b5442115b9150505b919050565b60065481565b3373ffffffffffffffffffffffffffffffffffffffff1660008054906101000a900473ffffffffffffffffffffffffffffffffffffffff1673ffffffffffffffffffffffffffffffffffffffff1614611575576040517f08c379a000000000000000000000000000000000000000000000000000000000815260040161156c90613406565b60405180910390fd5b80600a60026101000a81548160ff02191690831515021790555050565b600060011515600a60019054906101000a900460ff161515148015611607575060001515600f60008473ffffffffffffffffffffffffffffffffffffffff1673ffffffffffffffffffffffffffffffffffffffff16815260200190815260200160002060009054906101000a900460ff161515145b801561165c5750600e60008373ffffffffffffffffffffffffffffffffffffffff1673ffffffffffffffffffffffffffffffffffffffff16815260200190815260200160002060009054906101000a900460ff165b801561169b57504261167b600c54600b546128a290919063ffffffff16565b108061169a575060011515600a60029054906101000a900460ff161515145b5b9050919050565b60045481565b600a60029054906101000a900460ff1681565b3373ffffffffffffffffffffffffffffffffffffffff1660008054906101000a900473ffffffffffffffffffffffffffffffffffffffff1673ffffffffffffffffffffffffffffffffffffffff1614611749576040517f08c379a000000000000000000000000000000000000000000000000000000000815260040161174090613406565b60405180910390fd5b60005b815181101561184e5760011515601060008484815181106117705761176f61382c565b5b602002602001015173ffffffffffffffffffffffffffffffffffffffff1673ffffffffffffffffffffffffffffffffffffffff16815260200190815260200160002060009054906101000a900460ff161515141561183b576000601060008484815181106117e1576117e061382c565b5b602002602001015173ffffffffffffffffffffffffffffffffffffffff1673ffffffffffffffffffffffffffffffffffffffff16815260200190815260200160002060006101000a81548160ff0219169083151502179055505b808061184690613785565b91505061174c565b5050565b600f6020528060005260406000206000915054906101000a900460ff1681565b3373ffffffffffffffffffffffffffffffffffffffff1660008054906101000a900473ffffffffffffffffffffffffffffffffffffffff1673ffffffffffffffffffffffffffffffffffffffff1614611900576040517f08c379a00000000000000000000000000000000000000000000000000000000081526004016118f790613406565b60405180910390fd5b80600a60016101000a81548160ff02191690831515021790555050565b600260009054906101000a900473ffffffffffffffffffffffffffffffffffffffff1681565b60106020528060005260406000206000915054906101000a900460ff1681565b600c5481565b60003373ffffffffffffffffffffffffffffffffffffffff1660008054906101000a900473ffffffffffffffffffffffffffffffffffffffff1673ffffffffffffffffffffffffffffffffffffffff16146119f9576040517f08c379a00000000000000000000000000000000000000000000000000000000081526004016119f090613406565b60405180910390fd5b87600260006101000a81548173ffffffffffffffffffffffffffffffffffffffff021916908373ffffffffffffffffffffffffffffffffffffffff16021790555086600360006101000a81548173ffffffffffffffffffffffffffffffffffffffff021916908373ffffffffffffffffffffffffffffffffffffffff160217905550846007819055508560098190555083600481905550826005819055508160068190555060019050979650505050505050565b3373ffffffffffffffffffffffffffffffffffffffff1660008054906101000a900473ffffffffffffffffffffffffffffffffffffffff1673ffffffffffffffffffffffffffffffffffffffff1614611b3b576040517f08c379a0000000000000000000000000000000000000000000000000000000008152600401611b3290613406565b60405180910390fd5b60005b8151811015611c40576000151560106000848481518110611b6257611b6161382c565b5b602002602001015173ffffffffffffffffffffffffffffffffffffffff1673ffffffffffffffffffffffffffffffffffffffff16815260200190815260200160002060009054906101000a900460ff1615151415611c2d57600160106000848481518110611bd357611bd261382c565b5b602002602001015173ffffffffffffffffffffffffffffffffffffffff1673ffffffffffffffffffffffffffffffffffffffff16815260200190815260200160002060006101000a81548160ff0219169083151502179055505b8080611c3890613785565b915050611b3e565b5050565b600060011515600a60029054906101000a900460ff1615151480611c7d575042611c7b600c54600b546128a290919063ffffffff16565b105b15611c8b5760009050611cb7565b611cb442611ca6600c54600b546128a290919063ffffffff16565b61270d90919063ffffffff16565b90505b90565b600060011515600a60009054906101000a900460ff16151514611d12576040517f08c379a0000000000000000000000000000000000000000000000000000000008152600401611d0990613466565b60405180910390fd5b600454821015611d57576040517f08c379a0000000000000000000000000000000000000000000000000000000008152600401611d4e906134a6565b60405180910390fd5b60001515600a60039054906101000a900460ff1615151415611e625760011515601060003373ffffffffffffffffffffffffffffffffffffffff1673ffffffffffffffffffffffffffffffffffffffff16815260200190815260200160002060009054906101000a900460ff1615151480611e22575060011515601160003373ffffffffffffffffffffffffffffffffffffffff1673ffffffffffffffffffffffffffffffffffffffff16815260200190815260200160002060009054906101000a900460ff161515145b611e61576040517f08c379a0000000000000000000000000000000000000000000000000000000008152600401611e5890613386565b60405180910390fd5b5b60011515601060003373ffffffffffffffffffffffffffffffffffffffff1673ffffffffffffffffffffffffffffffffffffffff16815260200190815260200160002060009054906101000a900460ff1615151415611f9b57600554821115611f00576040517f08c379a0000000000000000000000000000000000000000000000000000000008152600401611ef790613426565b60405180910390fd5b600554611f5583600d60003373ffffffffffffffffffffffffffffffffffffffff1673ffffffffffffffffffffffffffffffffffffffff168152602001908152602001600020546128a290919063ffffffff16565b1115611f96576040517f08c379a0000000000000000000000000000000000000000000000000000000008152600401611f8d906134e6565b60405180910390fd5b6120ef565b60011515601160003373ffffffffffffffffffffffffffffffffffffffff1673ffffffffffffffffffffffffffffffffffffffff16815260200190815260200160002060009054906101000a900460ff161515148061200d575060011515600a60039054906101000a900460ff161515145b156120ee57600654821115612057576040517f08c379a000000000000000000000000000000000000000000000000000000000815260040161204e90613426565b60405180910390fd5b6006546120ac83600d60003373ffffffffffffffffffffffffffffffffffffffff1673ffffffffffffffffffffffffffffffffffffffff168152602001908152602001600020546128a290919063ffffffff16565b11156120ed576040517f08c379a00000000000000000000000000000000000000000000000000000000081526004016120e4906134e6565b60405180910390fd5b5b5b60004290506000600360009054906101000a900473ffffffffffffffffffffffffffffffffffffffff1673ffffffffffffffffffffffffffffffffffffffff166370a08231336040518263ffffffff1660e01b8152600401612151919061324e565b60206040518083038186803b15801561216957600080fd5b505afa15801561217d573d6000803e3d6000fd5b505050506040513d601f19601f820116820180604052508101906121a19190612f20565b9050838110156121e6576040517f08c379a00000000000000000000000000000000000000000000000000000000081526004016121dd90613346565b60405180910390fd5b6007546121fe856008546128a290919063ffffffff16565b111561223f576040517f08c379a000000000000000000000000000000000000000000000000000000000815260040161223690613506565b60405180910390fd5b612256600c54600b546128a290919063ffffffff16565b821080612276575060001515600a60029054906101000a900460ff161515145b6122b5576040517f08c379a00000000000000000000000000000000000000000000000000000000081526004016122ac90613446565b60405180910390fd5b6122ca846008546128a290919063ffffffff16565b60088190555060001515600e60003373ffffffffffffffffffffffffffffffffffffffff1673ffffffffffffffffffffffffffffffffffffffff16815260200190815260200160002060009054906101000a900460ff161515141561238c576001600e60003373ffffffffffffffffffffffffffffffffffffffff1673ffffffffffffffffffffffffffffffffffffffff16815260200190815260200160002060006101000a81548160ff02191690831515021790555061238b6001612900565b5b6123f533306123ac670de0b6b3a76400008861275790919063ffffffff16565b600360009054906101000a900473ffffffffffffffffffffffffffffffffffffffff1673ffffffffffffffffffffffffffffffffffffffff16612916909392919063ffffffff16565b61244784600d60003373ffffffffffffffffffffffffffffffffffffffff1673ffffffffffffffffffffffffffffffffffffffff168152602001908152602001600020546128a290919063ffffffff16565b600d60003373ffffffffffffffffffffffffffffffffffffffff1673ffffffffffffffffffffffffffffffffffffffff16815260200190815260200160002081905550600192505050919050565b3373ffffffffffffffffffffffffffffffffffffffff1660008054906101000a900473ffffffffffffffffffffffffffffffffffffffff1673ffffffffffffffffffffffffffffffffffffffff1614612523576040517f08c379a000000000000000000000000000000000000000000000000000000000815260040161251a90613406565b60405180910390fd5b80600a60036101000a81548160ff02191690831515021790555050565b60018060000154905081565b3373ffffffffffffffffffffffffffffffffffffffff1660008054906101000a900473ffffffffffffffffffffffffffffffffffffffff1673ffffffffffffffffffffffffffffffffffffffff16146125da576040517f08c379a00000000000000000000000000000000000000000000000000000000081526004016125d190613406565b60405180910390fd5b600073ffffffffffffffffffffffffffffffffffffffff168173ffffffffffffffffffffffffffffffffffffffff16141561264a576040517f08c379a000000000000000000000000000000000000000000000000000000000815260040161264190613326565b60405180910390fd5b8073ffffffffffffffffffffffffffffffffffffffff1660008054906101000a900473ffffffffffffffffffffffffffffffffffffffff1673ffffffffffffffffffffffffffffffffffffffff167f8be0079c531659141344cd1fd0a4f28419497f9722a3daafe3b4186f6b6457e060405160405180910390a3806000806101000a81548173ffffffffffffffffffffffffffffffffffffffff021916908373ffffffffffffffffffffffffffffffffffffffff16021790555050565b60055481565b600061274f83836040518060400160405280601e81526020017f536166654d6174683a207375627472616374696f6e206f766572666c6f77000081525061299f565b905092915050565b60008083141561276a57600090506127cc565b60008284612778919061364b565b9050828482612787919061361a565b146127c7576040517f08c379a00000000000000000000000000000000000000000000000000000000081526004016127be906133e6565b60405180910390fd5b809150505b92915050565b600061281483836040518060400160405280601a81526020017f536166654d6174683a206469766973696f6e206279207a65726f000000000000815250612a03565b905092915050565b61289d8363a9059cbb60e01b848460405160240161283b9291906132a0565b604051602081830303815290604052907bffffffffffffffffffffffffffffffffffffffffffffffffffffffff19166020820180517bffffffffffffffffffffffffffffffffffffffffffffffffffffffff8381831617835250505050612a66565b505050565b60008082846128b191906135c4565b9050838110156128f6576040517f08c379a00000000000000000000000000000000000000000000000000000000081526004016128ed90613366565b60405180910390fd5b8091505092915050565b6001816000016000828254019250508190555050565b612999846323b872dd60e01b85858560405160240161293793929190613269565b604051602081830303815290604052907bffffffffffffffffffffffffffffffffffffffffffffffffffffffff19166020820180517bffffffffffffffffffffffffffffffffffffffffffffffffffffffff8381831617835250505050612a66565b50505050565b60008383111582906129e7576040517f08c379a00000000000000000000000000000000000000000000000000000000081526004016129de91906132e4565b60405180910390fd5b50600083856129f691906136a5565b9050809150509392505050565b60008083118290612a4a576040517f08c379a0000000000000000000000000000000000000000000000000000000008152600401612a4191906132e4565b60405180910390fd5b5060008385612a59919061361a565b9050809150509392505050565b6000612ac8826040518060400160405280602081526020017f5361666545524332303a206c6f772d6c6576656c2063616c6c206661696c65648152508573ffffffffffffffffffffffffffffffffffffffff16612b2d9092919063ffffffff16565b9050600081511115612b285780806020019051810190612ae89190612ec6565b612b27576040517f08c379a0000000000000000000000000000000000000000000000000000000008152600401612b1e906134c6565b60405180910390fd5b5b505050565b6060612b3c8484600085612b45565b90509392505050565b6060612b5085612c67565b612b8f576040517f08c379a0000000000000000000000000000000000000000000000000000000008152600401612b8690613486565b60405180910390fd5b6000808673ffffffffffffffffffffffffffffffffffffffff168587604051612bb89190613237565b60006040518083038185875af1925050503d8060008114612bf5576040519150601f19603f3d011682016040523d82523d6000602084013e612bfa565b606091505b50915091508115612c0f578092505050612c5f565b600081511115612c225780518082602001fd5b836040517f08c379a0000000000000000000000000000000000000000000000000000000008152600401612c5691906132e4565b60405180910390fd5b949350505050565b600080823b905060008111915050919050565b6000612c8d612c8884613566565b613541565b90508083825260208201905082856020860282011115612cb057612caf61388f565b5b60005b85811015612ce05781612cc68882612cea565b845260208401935060208301925050600181019050612cb3565b5050509392505050565b600081359050612cf981613c26565b92915050565b600082601f830112612d1457612d1361388a565b5b8135612d24848260208601612c7a565b91505092915050565b600081359050612d3c81613c3d565b92915050565b600081519050612d5181613c3d565b92915050565b600081359050612d6681613c54565b92915050565b600081519050612d7b81613c54565b92915050565b600060208284031215612d9757612d96613899565b5b6000612da584828501612cea565b91505092915050565b600080600080600080600060e0888a031215612dcd57612dcc613899565b5b6000612ddb8a828b01612cea565b9750506020612dec8a828b01612cea565b9650506040612dfd8a828b01612d57565b9550506060612e0e8a828b01612d57565b9450506080612e1f8a828b01612d57565b93505060a0612e308a828b01612d57565b92505060c0612e418a828b01612d57565b91505092959891949750929550565b600060208284031215612e6657612e65613899565b5b600082013567ffffffffffffffff811115612e8457612e83613894565b5b612e9084828501612cff565b91505092915050565b600060208284031215612eaf57612eae613899565b5b6000612ebd84828501612d2d565b91505092915050565b600060208284031215612edc57612edb613899565b5b6000612eea84828501612d42565b91505092915050565b600060208284031215612f0957612f08613899565b5b6000612f1784828501612d57565b91505092915050565b600060208284031215612f3657612f35613899565b5b6000612f4484828501612d6c565b91505092915050565b612f56816136d9565b82525050565b612f65816136eb565b82525050565b6000612f7682613592565b612f8081856135a8565b9350612f90818560208601613721565b80840191505092915050565b6000612fa78261359d565b612fb181856135b3565b9350612fc1818560208601613721565b612fca8161389e565b840191505092915050565b6000612fe26019836135b3565b9150612fed826138af565b602082019050919050565b60006130056026836135b3565b9150613010826138d8565b604082019050919050565b6000613028601a836135b3565b915061303382613927565b602082019050919050565b600061304b601b836135b3565b915061305682613950565b602082019050919050565b600061306e601f836135b3565b915061307982613979565b602082019050919050565b6000613091600c836135b3565b915061309c826139a2565b602082019050919050565b60006130b4601d836135b3565b91506130bf826139cb565b602082019050919050565b60006130d76021836135b3565b91506130e2826139f4565b604082019050919050565b60006130fa6020836135b3565b915061310582613a43565b602082019050919050565b600061311d6014836135b3565b915061312882613a6c565b602082019050919050565b60006131406014836135b3565b915061314b82613a95565b602082019050919050565b6000613163600d836135b3565b915061316e82613abe565b602082019050919050565b6000613186601d836135b3565b915061319182613ae7565b602082019050919050565b60006131a96014836135b3565b91506131b482613b10565b602082019050919050565b60006131cc602a836135b3565b91506131d782613b39565b604082019050919050565b60006131ef6034836135b3565b91506131fa82613b88565b604082019050919050565b60006132126023836135b3565b915061321d82613bd7565b604082019050919050565b61323181613717565b82525050565b60006132438284612f6b565b915081905092915050565b60006020820190506132636000830184612f4d565b92915050565b600060608201905061327e6000830186612f4d565b61328b6020830185612f4d565b6132986040830184613228565b949350505050565b60006040820190506132b56000830185612f4d565b6132c26020830184613228565b9392505050565b60006020820190506132de6000830184612f5c565b92915050565b600060208201905081810360008301526132fe8184612f9c565b905092915050565b6000602082019050818103600083015261331f81612fd5565b9050919050565b6000602082019050818103600083015261333f81612ff8565b9050919050565b6000602082019050818103600083015261335f8161301b565b9050919050565b6000602082019050818103600083015261337f8161303e565b9050919050565b6000602082019050818103600083015261339f81613061565b9050919050565b600060208201905081810360008301526133bf81613084565b9050919050565b600060208201905081810360008301526133df816130a7565b9050919050565b600060208201905081810360008301526133ff816130ca565b9050919050565b6000602082019050818103600083015261341f816130ed565b9050919050565b6000602082019050818103600083015261343f81613110565b9050919050565b6000602082019050818103600083015261345f81613133565b9050919050565b6000602082019050818103600083015261347f81613156565b9050919050565b6000602082019050818103600083015261349f81613179565b9050919050565b600060208201905081810360008301526134bf8161319c565b9050919050565b600060208201905081810360008301526134df816131bf565b9050919050565b600060208201905081810360008301526134ff816131e2565b9050919050565b6000602082019050818103600083015261351f81613205565b9050919050565b600060208201905061353b6000830184613228565b92915050565b600061354b61355c565b90506135578282613754565b919050565b6000604051905090565b600067ffffffffffffffff8211156135815761358061385b565b5b602082029050602081019050919050565b600081519050919050565b600081519050919050565b600081905092915050565b600082825260208201905092915050565b60006135cf82613717565b91506135da83613717565b9250827fffffffffffffffffffffffffffffffffffffffffffffffffffffffffffffffff0382111561360f5761360e6137ce565b5b828201905092915050565b600061362582613717565b915061363083613717565b9250826136405761363f6137fd565b5b828204905092915050565b600061365682613717565b915061366183613717565b9250817fffffffffffffffffffffffffffffffffffffffffffffffffffffffffffffffff048311821515161561369a576136996137ce565b5b828202905092915050565b60006136b082613717565b91506136bb83613717565b9250828210156136ce576136cd6137ce565b5b828203905092915050565b60006136e4826136f7565b9050919050565b60008115159050919050565b600073ffffffffffffffffffffffffffffffffffffffff82169050919050565b6000819050919050565b60005b8381101561373f578082015181840152602081019050613724565b8381111561374e576000848401525b50505050565b61375d8261389e565b810181811067ffffffffffffffff8211171561377c5761377b61385b565b5b80604052505050565b600061379082613717565b91507fffffffffffffffffffffffffffffffffffffffffffffffffffffffffffffffff8214156137c3576137c26137ce565b5b600182019050919050565b7f4e487b7100000000000000000000000000000000000000000000000000000000600052601160045260246000fd5b7f4e487b7100000000000000000000000000000000000000000000000000000000600052601260045260246000fd5b7f4e487b7100000000000000000000000000000000000000000000000000000000600052603260045260246000fd5b7f4e487b7100000000000000000000000000000000000000000000000000000000600052604160045260246000fd5b600080fd5b600080fd5b600080fd5b600080fd5b6000601f19601f8301169050919050565b7f596f75206861766520616c726561647920636c61696d65642e00000000000000600082015250565b7f4f776e61626c653a206e6577206f776e657220697320746865207a65726f206160008201527f6464726573730000000000000000000000000000000000000000000000000000602082015250565b7f496e73756666696369656e7420627573642062616c616e63652e000000000000600082015250565b7f536166654d6174683a206164646974696f6e206f766572666c6f770000000000600082015250565b7f596f7520617265206e6f7420612077686974656c697374656420757365722e00600082015250565b7f43616e277420636c61696d2e0000000000000000000000000000000000000000600082015250565b7f43616e277420636c61696d206e6f772e20706c6561736520776169742e000000600082015250565b7f536166654d6174683a206d756c7469706c69636174696f6e206f766572666c6f60008201527f7700000000000000000000000000000000000000000000000000000000000000602082015250565b7f4f776e61626c653a2063616c6c6572206973206e6f7420746865206f776e6572600082015250565b7f4d6f7265207468616e206d617820616d6f756e74000000000000000000000000600082015250565b7f50726573616c652069732066696e69736865642e000000000000000000000000600082015250565b7f49444f20697320636c6f73656400000000000000000000000000000000000000600082015250565b7f416464726573733a2063616c6c20746f206e6f6e2d636f6e7472616374000000600082015250565b7f4c657373207468616e206d696e20616d6f756e74000000000000000000000000600082015250565b7f5361666545524332303a204552433230206f7065726174696f6e20646964206e60008201527f6f74207375636365656400000000000000000000000000000000000000000000602082015250565b7f596f752063616e206e6f7420707572636861736564206d6f7265207468616e2060008201527f6d617820616d6f756e7420617420746f74616c2e000000000000000000000000602082015250565b7f54686520616d6f756e7420656e746572656420657863656564732049444f204760008201527f6f616c0000000000000000000000000000000000000000000000000000000000602082015250565b613c2f816136d9565b8114613c3a57600080fd5b50565b613c46816136eb565b8114613c5157600080fd5b50565b613c5d81613717565b8114613c6857600080fd5b5056fea2646970667358221220a0214ebe348e0003e815ab248b9031ae9e6adfce2a3f648d619cb4a11dc5461764736f6c63430008070033",
  "linkReferences": {},
  "deployedLinkReferences": {}
}